:020000000E28C8
:10000800FE00030EC3000408C4000A08C5007F08E8
:10001800C60070280F28C801C901CC018301142823
:100028004C2035284A0803194B1C2A28AF301806DB
:10003800031D2028BF302528BF301806031D272898
:10004800DF309800342898014C1034284A0A031DE0
:1000580035284B1435284B1C3B28AF3098004C14DE
:100068004B1064004C1816284A0803192F284A0A0E
:10007800031D35284B144908803AFF0090307F0251
:10008800031D482800304802031C35286300352822
:10009800081088108810061486100611051185109E
:1000A80010088F395038900026179901F9309200BE
:1000B800980197018C10FC3093051315991719179F
:1000C8008D141B148B150B178B17FF30C7004708AF
:1000D800CA004B144C1008008D188C1C7E288C10FC
:1000E80005080139C0004A08C10041074004C200A0
:1000F8004208CA001C1C83281C10C801C901013011
:10010800C8070318C90A0030C9074608FF00450890
:100118008A0044088400430E8300FE0E7E0E090008
:02400E00F43F7D
:00000001FF
